{
  "address": "0x813816887Ac4989D0fa96b7FB9FC02dd4CE2d369",
  "abi": [
    {
      "inputs": [],
      "stateMutability": "nonpayable",
      "type": "constructor"
    },
    {
      "inputs": [],
      "name": "ZamaProtocolUnsupported",
      "type": "error"
    },
    {
      "anonymous": false,
      "inputs": [
        {
          "indexed": true,
          "internalType": "address",
          "name": "authority",
          "type": "address"
        }
      ],
      "name": "AuthorityAdded",
      "type": "event"
    },
    {
      "anonymous": false,
      "inputs": [
        {
          "indexed": true,
          "internalType": "address",
          "name": "authority",
          "type": "address"
        }
      ],
      "name": "AuthorityRemoved",
      "type": "event"
    },
    {
      "anonymous": false,
      "inputs": [
        {
          "indexed": true,
          "internalType": "uint256",
          "name": "vendorId",
          "type": "uint256"
        },
        {
          "indexed": true,
          "internalType": "address",
          "name": "rater",
          "type": "address"
        },
        {
          "indexed": false,
          "internalType": "uint256",
          "name": "timestamp",
          "type": "uint256"
        },
        {
          "indexed": false,
          "internalType": "bytes32",
          "name": "evidenceHash",
          "type": "bytes32"
        }
      ],
      "name": "RatingSubmitted",
      "type": "event"
    },
    {
      "anonymous": false,
      "inputs": [
        {
          "indexed": true,
          "internalType": "uint256",
          "name": "vendorId",
          "type": "uint256"
        },
        {
          "indexed": false,
          "internalType": "string",
          "name": "name",
          "type": "string"
        },
        {
          "indexed": false,
          "internalType": "string",
          "name": "location",
          "type": "string"
        }
      ],
      "name": "VendorRegistered",
      "type": "event"
    },
    {
      "inputs": [],
      "name": "COOLDOWN_PERIOD",
      "outputs": [
        {
          "internalType": "uint256",
          "name": "",
          "type": "uint256"
        }
      ],
      "stateMutability": "view",
      "type": "function"
    },
    {
      "inputs": [
        {
          "internalType": "address",
          "name": "authority",
          "type": "address"
        }
      ],
      "name": "addAuthority",
      "outputs": [],
      "stateMutability": "nonpayable",
      "type": "function"
    },
    {
      "inputs": [
        {
          "internalType": "uint256",
          "name": "vendorId",
          "type": "uint256"
        }
      ],
      "name": "allowAuthorityAccess",
      "outputs": [],
      "stateMutability": "nonpayable",
      "type": "function"
    },
    {
      "inputs": [],
      "name": "confidentialProtocolId",
      "outputs": [
        {
          "internalType": "uint256",
          "name": "",
          "type": "uint256"
        }
      ],
      "stateMutability": "view",
      "type": "function"
    },
    {
      "inputs": [],
      "name": "getAllVendorIds",
      "outputs": [
        {
          "internalType": "uint256[]",
          "name": "",
          "type": "uint256[]"
        }
      ],
      "stateMutability": "view",
      "type": "function"
    },
    {
      "inputs": [
        {
          "internalType": "uint256",
          "name": "vendorId",
          "type": "uint256"
        }
      ],
      "name": "getVendorAggregatedScores",
      "outputs": [
        {
          "internalType": "euint16",
          "name": "cleanliness",
          "type": "bytes32"
        },
        {
          "internalType": "euint16",
          "name": "gloveWearing",
          "type": "bytes32"
        },
        {
          "internalType": "euint16",
          "name": "wasteManagement",
          "type": "bytes32"
        },
        {
          "internalType": "uint256",
          "name": "ratingCount",
          "type": "uint256"
        }
      ],
      "stateMutability": "view",
      "type": "function"
    },
    {
      "inputs": [
        {
          "internalType": "uint256",
          "name": "vendorId",
          "type": "uint256"
        }
      ],
      "name": "getVendorEvidenceHashes",
      "outputs": [
        {
          "internalType": "bytes32[]",
          "name": "",
          "type": "bytes32[]"
        }
      ],
      "stateMutability": "view",
      "type": "function"
    },
    {
      "inputs": [
        {
          "internalType": "uint256",
          "name": "vendorId",
          "type": "uint256"
        }
      ],
      "name": "getVendorInfo",
      "outputs": [
        {
          "components": [
            {
              "internalType": "uint256",
              "name": "id",
              "type": "uint256"
            },
            {
              "internalType": "string",
              "name": "name",
              "type": "string"
            },
            {
              "internalType": "string",
              "name": "location",
              "type": "string"
            },
            {
              "internalType": "bool",
              "name": "exists",
              "type": "bool"
            },
            {
              "internalType": "uint256",
              "name": "ratingCount",
              "type": "uint256"
            }
          ],
          "internalType": "struct NightFairHygiene.Vendor",
          "name": "",
          "type": "tuple"
        }
      ],
      "stateMutability": "view",
      "type": "function"
    },
    {
      "inputs": [
        {
          "internalType": "uint256",
          "name": "vendorId",
          "type": "uint256"
        }
      ],
      "name": "getVendorRatingHistory",
      "outputs": [
        {
          "components": [
            {
              "internalType": "address",
              "name": "rater",
              "type": "address"
            },
            {
              "internalType": "uint256",
              "name": "timestamp",
              "type": "uint256"
            },
            {
              "internalType": "bytes32",
              "name": "evidenceHash",
              "type": "bytes32"
            }
          ],
          "internalType": "struct NightFairHygiene.Rating[]",
          "name": "",
          "type": "tuple[]"
        }
      ],
      "stateMutability": "view",
      "type": "function"
    },
    {
      "inputs": [
        {
          "internalType": "address",
          "name": "",
          "type": "address"
        }
      ],
      "name": "isAuthorizedAuthority",
      "outputs": [
        {
          "internalType": "bool",
          "name": "",
          "type": "bool"
        }
      ],
      "stateMutability": "view",
      "type": "function"
    },
    {
      "inputs": [
        {
          "internalType": "address",
          "name": "",
          "type": "address"
        },
        {
          "internalType": "uint256",
          "name": "",
          "type": "uint256"
        }
      ],
      "name": "lastRatingTime",
      "outputs": [
        {
          "internalType": "uint256",
          "name": "",
          "type": "uint256"
        }
      ],
      "stateMutability": "view",
      "type": "function"
    },
    {
      "inputs": [],
      "name": "owner",
      "outputs": [
        {
          "internalType": "address",
          "name": "",
          "type": "address"
        }
      ],
      "stateMutability": "view",
      "type": "function"
    },
    {
      "inputs": [
        {
          "internalType": "string",
          "name": "name",
          "type": "string"
        },
        {
          "internalType": "string",
          "name": "location",
          "type": "string"
        }
      ],
      "name": "registerVendor",
      "outputs": [
        {
          "internalType": "uint256",
          "name": "vendorId",
          "type": "uint256"
        }
      ],
      "stateMutability": "nonpayable",
      "type": "function"
    },
    {
      "inputs": [
        {
          "internalType": "address",
          "name": "authority",
          "type": "address"
        }
      ],
      "name": "removeAuthority",
      "outputs": [],
      "stateMutability": "nonpayable",
      "type": "function"
    },
    {
      "inputs": [
        {
          "internalType": "uint256",
          "name": "vendorId",
          "type": "uint256"
        },
        {
          "internalType": "externalEuint16",
          "name": "inputCleanliness",
          "type": "bytes32"
        },
        {
          "internalType": "externalEuint16",
          "name": "inputGloveWearing",
          "type": "bytes32"
        },
        {
          "internalType": "externalEuint16",
          "name": "inputWasteManagement",
          "type": "bytes32"
        },
        {
          "internalType": "bytes",
          "name": "inputProof",
          "type": "bytes"
        },
        {
          "internalType": "bytes32",
          "name": "evidenceHash",
          "type": "bytes32"
        }
      ],
      "name": "submitRating",
      "outputs": [],
      "stateMutability": "nonpayable",
      "type": "function"
    },
    {
      "inputs": [
        {
          "internalType": "uint256",
          "name": "",
          "type": "uint256"
        }
      ],
      "name": "vendorAggregatedCleanliness",
      "outputs": [
        {
          "internalType": "euint16",
          "name": "",
          "type": "bytes32"
        }
      ],
      "stateMutability": "view",
      "type": "function"
    },
    {
      "inputs": [
        {
          "internalType": "uint256",
          "name": "",
          "type": "uint256"
        }
      ],
      "name": "vendorAggregatedGloveWearing",
      "outputs": [
        {
          "internalType": "euint16",
          "name": "",
          "type": "bytes32"
        }
      ],
      "stateMutability": "view",
      "type": "function"
    },
    {
      "inputs": [
        {
          "internalType": "uint256",
          "name": "",
          "type": "uint256"
        }
      ],
      "name": "vendorAggregatedWasteManagement",
      "outputs": [
        {
          "internalType": "euint16",
          "name": "",
          "type": "bytes32"
        }
      ],
      "stateMutability": "view",
      "type": "function"
    },
    {
      "inputs": [],
      "name": "vendorCount",
      "outputs": [
        {
          "internalType": "uint256",
          "name": "",
          "type": "uint256"
        }
      ],
      "stateMutability": "view",
      "type": "function"
    },
    {
      "inputs": [
        {
          "internalType": "uint256",
          "name": "",
          "type": "uint256"
        }
      ],
      "name": "vendorIds",
      "outputs": [
        {
          "internalType": "uint256",
          "name": "",
          "type": "uint256"
        }
      ],
      "stateMutability": "view",
      "type": "function"
    },
    {
      "inputs": [
        {
          "internalType": "uint256",
          "name": "",
          "type": "uint256"
        }
      ],
      "name": "vendors",
      "outputs": [
        {
          "internalType": "uint256",
          "name": "id",
          "type": "uint256"
        },
        {
          "internalType": "string",
          "name": "name",
          "type": "string"
        },
        {
          "internalType": "string",
          "name": "location",
          "type": "string"
        },
        {
          "internalType": "bool",
          "name": "exists",
          "type": "bool"
        },
        {
          "internalType": "uint256",
          "name": "ratingCount",
          "type": "uint256"
        }
      ],
      "stateMutability": "view",
      "type": "function"
    }
  ],
  "transactionHash": "0x86b43f8d0c1e930b2749164f03a9438d9e3bec2ed495308f72887748ef58a815",
  "args": [],
  "numDeployments": 1,
  "solcInputHash": "9348a8991200e25f523c54cae979093f",
  "bytecode": "0x608060405234801561000f575f5ffd5b506100c461001b6100f6565b80517f9e7b61f58c47dc699ac88507c4f5bb9f121c03808c5676a8078fe583e464970080546001600160a01b03199081166001600160a01b039384161790915560208301517f9e7b61f58c47dc699ac88507c4f5bb9f121c03808c5676a8078fe583e46497018054831691841691909117905560408301517f9e7b61f58c47dc699ac88507c4f5bb9f121c03808c5676a8078fe583e46497028054909216921691909117905550565b600a80546001600160a01b031916339081179091555f908152600960205260409020805460ff19166001179055610265565b604080516060810182525f80825260208201819052918101919091524660010361014f575060408051606080820183525f8083526020808401829052928401819052835191820184528082529181018290529182015290565b4662aa36a7036101ce575060408051606080820183525f8083526020808401829052928401528251908101835273f0ffdc93b7e186bc2f8cb3daa75d86d1930a433d81527392c920834ec8941d2c77d188936e1f7a6f49c1279181019190915273be0e383937d564d7ff0bc3b46c51f0bf8d5c311a9181019190915290565b46617a690361024c575060408051606080820183525f8083526020808401829052928401528251908101835273f0ffdc93b7e186bc2f8cb3daa75d86d1930a433d81527392c920834ec8941d2c77d188936e1f7a6f49c1279181019190915273be0e383937d564d7ff0bc3b46c51f0bf8d5c311a9181019190915290565b6040516373cac13b60e01b815260040160405180910390fd5b611cd5806102725f395ff3fe608060405234801561000f575f5ffd5b506004361061016e575f3560e01c80638927b030116100d2578063a08d986d11610088578063bf5a8e7411610063578063bf5a8e7414610364578063c9e35ea614610384578063d544e010146103a3575f5ffd5b8063a08d986d14610319578063b2f30a9f1461033d578063b56677711461035c575f5ffd5b806394e87504116100b857806394e87504146102d3578063963d1b68146102e65780639a7ccd7f146102f9575f5ffd5b80638927b030146102a05780638da5cb5b146102a8575f5ffd5b80636e99d52f1161012757806374611f2d1161010d57806374611f2d1461026557806374e8807d146102845780638858287b14610297575f5ffd5b80636e99d52f146102495780637251872e14610252575f5ffd5b80632e4b8e07116101575780632e4b8e07146101bf5780635862c848146101df57806362788b4414610211575f5ffd5b806326defa731461017257806327ef916a14610187575b5f5ffd5b610185610180366004611774565b6103b6565b005b61019a61019536600461178d565b6104b5565b6040805194855260208501939093529183015260608201526080015b60405180910390f35b6101d26101cd36600461178d565b61054f565b6040516101b691906117a4565b6102016101ed366004611774565b60096020525f908152604090205460ff1681565b60405190151581526020016101b6565b61023b61021f36600461180b565b600860209081525f928352604080842090915290825290205481565b6040519081526020016101b6565b61023b610e1081565b61023b61026036600461178d565b610684565b61023b61027336600461178d565b60056020525f908152604090205481565b61023b610292366004611878565b6106a3565b61023b60015481565b61023b6108b5565b600a546102bb906001600160a01b031681565b6040516001600160a01b0390911681526020016101b6565b6101856102e13660046118e4565b6108c3565b6101856102f436600461178d565b610c9f565b61030c61030736600461178d565b610d97565b6040516101b69190611951565b61032c61032736600461178d565b610ea1565b6040516101b69594939291906119b6565b61023b61034b36600461178d565b60046020525f908152604090205481565b61030c610fdf565b61037761037236600461178d565b611035565b6040516101b691906119f5565b61023b61039236600461178d565b60036020525f908152604090205481565b6101856103b1366004611774565b611221565b600a546001600160a01b031633146104025760405162461bcd60e51b815260206004820152600a60248201526927b7363c9037bbb732b960b11b60448201526064015b60405180910390fd5b6001600160a01b0381165f9081526009602052604090205460ff161561046a5760405162461bcd60e51b815260206004820152601260248201527f416c726561647920617574686f72697a6564000000000000000000000000000060448201526064016103f9565b6001600160a01b0381165f81815260096020526040808220805460ff19166001179055517f550a8ae64ec9d6640b6f168a26d3e6364b90defe8110c92135aa775b279e54ea9190a250565b5f81815260208190526040812060030154819081908190859060ff166105155760405162461bcd60e51b815260206004820152601560248201527415995b991bdc88191bd95cc81b9bdd08195e1a5cdd605a1b60448201526064016103f9565b5050505f92835250506003602090815260408083205460048084528285205460058552838620549486905292909420909301549293909290565b335f9081526009602052604090205460609060ff166105a15760405162461bcd60e51b815260206004820152600e60248201526d139bdd08185d5d1a1bdc9a5e995960921b60448201526064016103f9565b5f82815260208190526040902060030154829060ff166105fb5760405162461bcd60e51b815260206004820152601560248201527415995b991bdc88191bd95cc81b9bdd08195e1a5cdd605a1b60448201526064016103f9565b5f83815260076020908152604080832080548251818502810185019093528083529193909284015b82821015610677575f848152602090819020604080516060810182526003860290920180546001600160a01b0316835260018082015484860152600290910154918301919091529083529092019101610623565b5050505091505b50919050565b60028181548110610693575f80fd5b5f91825260209091200154905081565b600180545f91826106b383611a6e565b919050555060015490506040518060a0016040528082815260200186868080601f0160208091040260200160405190810160405280939291908181526020018383808284375f92019190915250505090825250604080516020601f8701819004810282018101909252858152918101919086908690819084018382808284375f920182905250938552505060016020808501829052604094850184905286845283815293909220845181559284015191830191610771915082611b17565b50604082015160028201906107869082611b17565b50606082015160038201805460ff1916911515919091179055608090910151600490910155600280546001810182555f9182527f405787fa12a823e0f2b7631cc41b3ba8828b3321ca811111fa75cd3aa3bb5ace018290556107e790611366565b5f8281526003602052604081209190915561080190611366565b5f8281526004602052604081209190915561081b90611366565b5f8281526005602090815260408083209390935560039052205461083e9061137c565b505f818152600460205260409020546108569061137c565b505f8181526005602052604090205461086e9061137c565b50807f98b0f014eec00348a0a4e18fe24428ac0c0c34eec38c15f39659d0537c723b2d868686866040516108a59493929190611bfa565b60405180910390a2949350505050565b5f6108be61138b565b905090565b5f87815260208190526040902060030154879060ff1661091d5760405162461bcd60e51b815260206004820152601560248201527415995b991bdc88191bd95cc81b9bdd08195e1a5cdd605a1b60448201526064016103f9565b335f9081526008602090815260408083208b845290915290205461094490610e1090611c2b565b4210156109935760405162461bcd60e51b815260206004820152601b60248201527f436f6f6c646f776e20706572696f64206e6f7420656c6170736564000000000060448201526064016103f9565b5f6109d38886868080601f0160208091040260200160405190810160405280939291908181526020018383808284375f920191909152506113bf92505050565b90505f610a158887878080601f0160208091040260200160405190810160405280939291908181526020018383808284375f920191909152506113bf92505050565b90505f610a578888888080601f0160208091040260200160405190810160405280939291908181526020018383808284375f920191909152506113bf92505050565b9050610a628361137c565b50610a6c8261137c565b50610a768161137c565b505f8b815260036020526040902054610a8f90846113d3565b5f8c815260036020908152604080832093909355600490522054610ab390836113d3565b5f8c815260046020908152604080832093909355600590522054610ad790826113d3565b5f8c815260056020908152604080832093909355600390522054610afa9061137c565b505f8b815260046020526040902054610b129061137c565b505f8b815260056020526040902054610b2a9061137c565b505f8b8152602081905260408120600401805491610b4783611a6e565b90915550508415610b73575f8b8152600660209081526040822080546001810182559083529120018590555b60075f8c81526020019081526020015f206040518060600160405280336001600160a01b0316815260200142815260200187815250908060018154018082558091505060019003905f5260205f2090600302015f909190919091505f820151815f015f6101000a8154816001600160a01b0302191690836001600160a01b03160217905550602082015181600101556040820151816002015550504260085f336001600160a01b03166001600160a01b031681526020019081526020015f205f8d81526020019081526020015f2081905550336001600160a01b03168b7f10c34f41964ed1f2eb2ab3050fdfe055fbefa4817d771bfdf87bce77adcf9ea24288604051610c8a929190918252602082015260400190565b60405180910390a35050505050505050505050565b335f9081526009602052604090205460ff16610cee5760405162461bcd60e51b815260206004820152600e60248201526d139bdd08185d5d1a1bdc9a5e995960921b60448201526064016103f9565b5f81815260208190526040902060030154819060ff16610d485760405162461bcd60e51b815260206004820152601560248201527415995b991bdc88191bd95cc81b9bdd08195e1a5cdd605a1b60448201526064016103f9565b5f82815260036020526040902054610d609033611401565b505f82815260046020526040902054610d799033611401565b505f82815260056020526040902054610d929033611401565b505050565b335f9081526009602052604090205460609060ff16610de95760405162461bcd60e51b815260206004820152600e60248201526d139bdd08185d5d1a1bdc9a5e995960921b60448201526064016103f9565b5f82815260208190526040902060030154829060ff16610e435760405162461bcd60e51b815260206004820152601560248201527415995b991bdc88191bd95cc81b9bdd08195e1a5cdd605a1b60448201526064016103f9565b5f8381526006602090815260409182902080548351818402810184019094528084529091830182828015610e9457602002820191905f5260205f20905b815481526020019060010190808311610e80575b5050505050915050919050565b5f6020819052908152604090208054600182018054919291610ec290611a9a565b80601f0160208091040260200160405190810160405280929190818152602001828054610eee90611a9a565b8015610f395780601f10610f1057610100808354040283529160200191610f39565b820191905f5260205f20905b815481529060010190602001808311610f1c57829003601f168201915b505050505090806002018054610f4e90611a9a565b80601f0160208091040260200160405190810160405280929190818152602001828054610f7a90611a9a565b8015610fc55780601f10610f9c57610100808354040283529160200191610fc5565b820191905f5260205f20905b815481529060010190602001808311610fa857829003601f168201915b505050506003830154600490930154919260ff1691905085565b6060600280548060200260200160405190810160405280929190818152602001828054801561102b57602002820191905f5260205f20905b815481526020019060010190808311611017575b5050505050905090565b6110666040518060a001604052805f815260200160608152602001606081526020015f151581526020015f81525090565b5f82815260208190526040902060030154829060ff166110c05760405162461bcd60e51b815260206004820152601560248201527415995b991bdc88191bd95cc81b9bdd08195e1a5cdd605a1b60448201526064016103f9565b5f8381526020818152604091829020825160a081019093528054835260018101805491928401916110f090611a9a565b80601f016020809104026020016040519081016040528092919081815260200182805461111c90611a9a565b80156111675780601f1061113e57610100808354040283529160200191611167565b820191905f5260205f20905b81548152906001019060200180831161114a57829003601f168201915b5050505050815260200160028201805461118090611a9a565b80601f01602080910402602001604051908101604052809291908181526020018280546111ac90611a9a565b80156111f75780601f106111ce576101008083540402835291602001916111f7565b820191905f5260205f20905b8154815290600101906020018083116111da57829003601f168201915b5050509183525050600382015460ff16151560208201526004909101546040909101529392505050565b600a546001600160a01b031633146112685760405162461bcd60e51b815260206004820152600a60248201526927b7363c9037bbb732b960b11b60448201526064016103f9565b6001600160a01b0381165f9081526009602052604090205460ff166112c05760405162461bcd60e51b815260206004820152600e60248201526d139bdd08185d5d1a1bdc9a5e995960921b60448201526064016103f9565b600a546001600160a01b039081169082160361131e5760405162461bcd60e51b815260206004820152601360248201527f43616e6e6f742072656d6f7665206f776e65720000000000000000000000000060448201526064016103f9565b6001600160a01b0381165f81815260096020526040808220805460ff19169055517f272215cde179041f7a3e8da6f8aabc7c8fc1336ccd73aba698cb825a80d3be489190a250565b5f6113768261ffff166003611413565b92915050565b5f61138782306114d0565b5090565b5f4660010361139a5750600190565b4662aa36a7036113ab575061271190565b46617a69036113ba57505f1990565b505f90565b5f6113cc83836003611559565b9392505050565b5f826113e5576113e25f611366565b92505b816113f6576113f35f611366565b91505b6113cc83835f611679565b5f61140c83836114d0565b5090919050565b7f9e7b61f58c47dc699ac88507c4f5bb9f121c03808c5676a8078fe583e464970154604051639cd07acb60e01b81525f917f9e7b61f58c47dc699ac88507c4f5bb9f121c03808c5676a8078fe583e4649700916001600160a01b0390911690639cd07acb906114889087908790600401611c5e565b6020604051808303815f875af11580156114a4573d5f5f3e3d5ffd5b505050506040513d601f19601f820116820180604052508101906114c89190611c72565b949350505050565b5f7f9e7b61f58c47dc699ac88507c4f5bb9f121c03808c5676a8078fe583e46497008054604051635ca4b5b160e11b8152600481018690526001600160a01b03858116602483015292935091169063b9496b62906044015f604051808303815f87803b15801561153e575f5ffd5b505af1158015611550573d5f5f3e3d5ffd5b50505050505050565b7f9e7b61f58c47dc699ac88507c4f5bb9f121c03808c5676a8078fe583e46497015460405163045fc19560e11b81525f917f9e7b61f58c47dc699ac88507c4f5bb9f121c03808c5676a8078fe583e4649700916001600160a01b03909116906308bf832a906115d2908890339089908990600401611c89565b6020604051808303815f875af11580156115ee573d5f5f3e3d5ffd5b505050506040513d601f19601f820116820180604052508101906116129190611c72565b8154604051630f8e573b60e21b8152600481018390523360248201529193506001600160a01b031690633e395cec906044015f604051808303815f87803b15801561165b575f5ffd5b505af115801561166d573d5f5f3e3d5ffd5b50505050509392505050565b5f5f821561168c5750600160f81b61168f565b505f5b5f7f9e7b61f58c47dc699ac88507c4f5bb9f121c03808c5676a8078fe583e4649700600181015460405163022f65e760e31b815260048101899052602481018890527fff00000000000000000000000000000000000000000000000000000000000000851660448201529192506001600160a01b03169063117b2f38906064016020604051808303815f875af115801561172b573d5f5f3e3d5ffd5b505050506040513d601f19601f8201168201806040525081019061174f9190611c72565b9695505050505050565b80356001600160a01b038116811461176f575f5ffd5b919050565b5f60208284031215611784575f5ffd5b6113cc82611759565b5f6020828403121561179d575f5ffd5b5035919050565b602080825282518282018190525f918401906040840190835b818110156118005783516001600160a01b0381511684526020810151602085015260408101516040850152506060830192506020840193506001810190506117bd565b509095945050505050565b5f5f6040838503121561181c575f5ffd5b61182583611759565b946020939093013593505050565b5f5f83601f840112611843575f5ffd5b50813567ffffffffffffffff81111561185a575f5ffd5b602083019150836020828501011115611871575f5ffd5b9250929050565b5f5f5f5f6040858703121561188b575f5ffd5b843567ffffffffffffffff8111156118a1575f5ffd5b6118ad87828801611833565b909550935050602085013567ffffffffffffffff8111156118cc575f5ffd5b6118d887828801611833565b95989497509550505050565b5f5f5f5f5f5f5f60c0888a0312156118fa575f5ffd5b87359650602088013595506040880135945060608801359350608088013567ffffffffffffffff81111561192c575f5ffd5b6119388a828b01611833565b989b979a5095989497959660a090950135949350505050565b602080825282518282018190525f918401906040840190835b8181101561180057835183526020938401939092019160010161196a565b5f81518084528060208401602086015e5f602082860101526020601f19601f83011685010191505092915050565b85815260a060208201525f6119ce60a0830187611988565b82810360408401526119e08187611988565b94151560608401525050608001529392505050565b60208152815160208201525f602083015160a06040840152611a1a60c0840182611988565b90506040840151601f19848303016060850152611a378282611988565b915050606084015115156080840152608084015160a08401528091505092915050565b634e487b7160e01b5f52601160045260245ffd5b5f60018201611a7f57611a7f611a5a565b5060010190565b634e487b7160e01b5f52604160045260245ffd5b600181811c90821680611aae57607f821691505b60208210810361067e57634e487b7160e01b5f52602260045260245ffd5b601f821115610d9257805f5260205f20601f840160051c81016020851015611af15750805b601f840160051c820191505b81811015611b10575f8155600101611afd565b5050505050565b815167ffffffffffffffff811115611b3157611b31611a86565b611b4581611b3f8454611a9a565b84611acc565b6020601f821160018114611b77575f8315611b605750848201515b5f19600385901b1c1916600184901b178455611b10565b5f84815260208120601f198516915b82811015611ba65787850151825560209485019460019092019101611b86565b5084821015611bc357868401515f19600387901b60f8161c191681555b50505050600190811b01905550565b81835281816020850137505f828201602090810191909152601f909101601f19169091010190565b604081525f611c0d604083018688611bd2565b8281036020840152611c20818587611bd2565b979650505050505050565b8082018082111561137657611376611a5a565b60548110611c5a57634e487b7160e01b5f52602160045260245ffd5b9052565b828152604081016113cc6020830184611c3e565b5f60208284031215611c82575f5ffd5b5051919050565b8481526001600160a01b0384166020820152608060408201525f611cb06080830185611988565b9050611cbf6060830184611c3e565b9594505050505056fea164736f6c634300081b000a",
  "devdoc": {
    "details": "All ratings are encrypted (euint16) and aggregated homomorphically",
    "kind": "dev",
    "methods": {
      "addAuthority(address)": {
        "params": {
          "authority": "The address to authorize"
        }
      },
      "allowAuthorityAccess(uint256)": {
        "details": "This function grants FHE.allow permission to the calling authority",
        "params": {
          "vendorId": "The vendor ID"
        }
      },
      "getAllVendorIds()": {
        "returns": {
          "_0": "Array of vendor IDs"
        }
      },
      "getVendorAggregatedScores(uint256)": {
        "details": "Authorities can decrypt these; public users cannot",
        "params": {
          "vendorId": "The vendor ID"
        },
        "returns": {
          "cleanliness": "Encrypted aggregated cleanliness",
          "gloveWearing": "Encrypted aggregated glove wearing",
          "ratingCount": "Number of ratings",
          "wasteManagement": "Encrypted aggregated waste management"
        }
      },
      "getVendorEvidenceHashes(uint256)": {
        "params": {
          "vendorId": "The vendor ID"
        },
        "returns": {
          "_0": "Array of evidence hashes"
        }
      },
      "getVendorInfo(uint256)": {
        "params": {
          "vendorId": "The vendor ID"
        },
        "returns": {
          "_0": "Vendor struct"
        }
      },
      "getVendorRatingHistory(uint256)": {
        "params": {
          "vendorId": "The vendor ID"
        },
        "returns": {
          "_0": "Array of ratings"
        }
      },
      "registerVendor(string,string)": {
        "params": {
          "location": "Vendor location",
          "name": "Vendor name"
        },
        "returns": {
          "vendorId": "The ID of the registered vendor"
        }
      },
      "removeAuthority(address)": {
        "params": {
          "authority": "The address to deauthorize"
        }
      },
      "submitRating(uint256,bytes32,bytes32,bytes32,bytes,bytes32)": {
        "params": {
          "evidenceHash": "Optional evidence fingerprint (SHA256/IPFS CID)",
          "inputCleanliness": "External encrypted cleanliness score (1-10)",
          "inputGloveWearing": "External encrypted glove wearing score (1-10)",
          "inputProof": "The input proof for all three values",
          "inputWasteManagement": "External encrypted waste management score (1-10)",
          "vendorId": "The vendor ID"
        }
      }
    },
    "title": "NightFairHygiene - Night Market Vendor Hygiene Rating System",
    "version": 1
  },
  "userdoc": {
    "errors": {
      "ZamaProtocolUnsupported()": [
        {
          "notice": "Returned if the Zama protocol is not supported on the current chain"
        }
      ]
    },
    "kind": "user",
    "methods": {
      "addAuthority(address)": {
        "notice": "Add an authorized authority"
      },
      "allowAuthorityAccess(uint256)": {
        "notice": "Allow authority to decrypt a vendor's aggregated scores"
      },
      "getAllVendorIds()": {
        "notice": "Get all vendor IDs"
      },
      "getVendorAggregatedScores(uint256)": {
        "notice": "Get encrypted aggregated scores for a vendor"
      },
      "getVendorEvidenceHashes(uint256)": {
        "notice": "Get evidence hashes for a vendor (authority only)"
      },
      "getVendorInfo(uint256)": {
        "notice": "Get vendor information"
      },
      "getVendorRatingHistory(uint256)": {
        "notice": "Get rating history for a vendor (authority only)"
      },
      "registerVendor(string,string)": {
        "notice": "Register a new vendor (open to anyone)"
      },
      "removeAuthority(address)": {
        "notice": "Remove an authorized authority"
      },
      "submitRating(uint256,bytes32,bytes32,bytes32,bytes,bytes32)": {
        "notice": "Submit encrypted hygiene rating for a vendor"
      }
    },
    "notice": "Privacy-preserving hygiene rating system using FHEVM",
    "version": 1
  },
  "storageLayout": {
    "storage": [
      {
        "astId": 39313,
        "contract": "contracts/NightFairHygiene.sol:NightFairHygiene",
        "label": "vendors",
        "offset": 0,
        "slot": "0",
        "type": "t_mapping(t_uint256,t_struct(Vendor)39301_storage)"
      },
      {
        "astId": 39315,
        "contract": "contracts/NightFairHygiene.sol:NightFairHygiene",
        "label": "vendorCount",
        "offset": 0,
        "slot": "1",
        "type": "t_uint256"
      },
      {
        "astId": 39318,
        "contract": "contracts/NightFairHygiene.sol:NightFairHygiene",
        "label": "vendorIds",
        "offset": 0,
        "slot": "2",
        "type": "t_array(t_uint256)dyn_storage"
      },
      {
        "astId": 39323,
        "contract": "contracts/NightFairHygiene.sol:NightFairHygiene",
        "label": "vendorAggregatedCleanliness",
        "offset": 0,
        "slot": "3",
        "type": "t_mapping(t_uint256,t_userDefinedValueType(euint16)39941)"
      },
      {
        "astId": 39328,
        "contract": "contracts/NightFairHygiene.sol:NightFairHygiene",
        "label": "vendorAggregatedGloveWearing",
        "offset": 0,
        "slot": "4",
        "type": "t_mapping(t_uint256,t_userDefinedValueType(euint16)39941)"
      },
      {
        "astId": 39333,
        "contract": "contracts/NightFairHygiene.sol:NightFairHygiene",
        "label": "vendorAggregatedWasteManagement",
        "offset": 0,
        "slot": "5",
        "type": "t_mapping(t_uint256,t_userDefinedValueType(euint16)39941)"
      },
      {
        "astId": 39338,
        "contract": "contracts/NightFairHygiene.sol:NightFairHygiene",
        "label": "vendorEvidenceHashes",
        "offset": 0,
        "slot": "6",
        "type": "t_mapping(t_uint256,t_array(t_bytes32)dyn_storage)"
      },
      {
        "astId": 39344,
        "contract": "contracts/NightFairHygiene.sol:NightFairHygiene",
        "label": "vendorRatings",
        "offset": 0,
        "slot": "7",
        "type": "t_mapping(t_uint256,t_array(t_struct(Rating)39308_storage)dyn_storage)"
      },
      {
        "astId": 39350,
        "contract": "contracts/NightFairHygiene.sol:NightFairHygiene",
        "label": "lastRatingTime",
        "offset": 0,
        "slot": "8",
        "type": "t_mapping(t_address,t_mapping(t_uint256,t_uint256))"
      },
      {
        "astId": 39357,
        "contract": "contracts/NightFairHygiene.sol:NightFairHygiene",
        "label": "isAuthorizedAuthority",
        "offset": 0,
        "slot": "9",
        "type": "t_mapping(t_address,t_bool)"
      },
      {
        "astId": 39359,
        "contract": "contracts/NightFairHygiene.sol:NightFairHygiene",
        "label": "owner",
        "offset": 0,
        "slot": "10",
        "type": "t_address"
      }
    ],
    "types": {
      "t_address": {
        "encoding": "inplace",
        "label": "address",
        "numberOfBytes": "20"
      },
      "t_array(t_bytes32)dyn_storage": {
        "base": "t_bytes32",
        "encoding": "dynamic_array",
        "label": "bytes32[]",
        "numberOfBytes": "32"
      },
      "t_array(t_struct(Rating)39308_storage)dyn_storage": {
        "base": "t_struct(Rating)39308_storage",
        "encoding": "dynamic_array",
        "label": "struct NightFairHygiene.Rating[]",
        "numberOfBytes": "32"
      },
      "t_array(t_uint256)dyn_storage": {
        "base": "t_uint256",
        "encoding": "dynamic_array",
        "label": "uint256[]",
        "numberOfBytes": "32"
      },
      "t_bool": {
        "encoding": "inplace",
        "label": "bool",
        "numberOfBytes": "1"
      },
      "t_bytes32": {
        "encoding": "inplace",
        "label": "bytes32",
        "numberOfBytes": "32"
      },
      "t_mapping(t_address,t_bool)": {
        "encoding": "mapping",
        "key": "t_address",
        "label": "mapping(address => bool)",
        "numberOfBytes": "32",
        "value": "t_bool"
      },
      "t_mapping(t_address,t_mapping(t_uint256,t_uint256))": {
        "encoding": "mapping",
        "key": "t_address",
        "label": "mapping(address => mapping(uint256 => uint256))",
        "numberOfBytes": "32",
        "value": "t_mapping(t_uint256,t_uint256)"
      },
      "t_mapping(t_uint256,t_array(t_bytes32)dyn_storage)": {
        "encoding": "mapping",
        "key": "t_uint256",
        "label": "mapping(uint256 => bytes32[])",
        "numberOfBytes": "32",
        "value": "t_array(t_bytes32)dyn_storage"
      },
      "t_mapping(t_uint256,t_array(t_struct(Rating)39308_storage)dyn_storage)": {
        "encoding": "mapping",
        "key": "t_uint256",
        "label": "mapping(uint256 => struct NightFairHygiene.Rating[])",
        "numberOfBytes": "32",
        "value": "t_array(t_struct(Rating)39308_storage)dyn_storage"
      },
      "t_mapping(t_uint256,t_struct(Vendor)39301_storage)": {
        "encoding": "mapping",
        "key": "t_uint256",
        "label": "mapping(uint256 => struct NightFairHygiene.Vendor)",
        "numberOfBytes": "32",
        "value": "t_struct(Vendor)39301_storage"
      },
      "t_mapping(t_uint256,t_uint256)": {
        "encoding": "mapping",
        "key": "t_uint256",
        "label": "mapping(uint256 => uint256)",
        "numberOfBytes": "32",
        "value": "t_uint256"
      },
      "t_mapping(t_uint256,t_userDefinedValueType(euint16)39941)": {
        "encoding": "mapping",
        "key": "t_uint256",
        "label": "mapping(uint256 => euint16)",
        "numberOfBytes": "32",
        "value": "t_userDefinedValueType(euint16)39941"
      },
      "t_string_storage": {
        "encoding": "bytes",
        "label": "string",
        "numberOfBytes": "32"
      },
      "t_struct(Rating)39308_storage": {
        "encoding": "inplace",
        "label": "struct NightFairHygiene.Rating",
        "members": [
          {
            "astId": 39303,
            "contract": "contracts/NightFairHygiene.sol:NightFairHygiene",
            "label": "rater",
            "offset": 0,
            "slot": "0",
            "type": "t_address"
          },
          {
            "astId": 39305,
            "contract": "contracts/NightFairHygiene.sol:NightFairHygiene",
            "label": "timestamp",
            "offset": 0,
            "slot": "1",
            "type": "t_uint256"
          },
          {
            "astId": 39307,
            "contract": "contracts/NightFairHygiene.sol:NightFairHygiene",
            "label": "evidenceHash",
            "offset": 0,
            "slot": "2",
            "type": "t_bytes32"
          }
        ],
        "numberOfBytes": "96"
      },
      "t_struct(Vendor)39301_storage": {
        "encoding": "inplace",
        "label": "struct NightFairHygiene.Vendor",
        "members": [
          {
            "astId": 39292,
            "contract": "contracts/NightFairHygiene.sol:NightFairHygiene",
            "label": "id",
            "offset": 0,
            "slot": "0",
            "type": "t_uint256"
          },
          {
            "astId": 39294,
            "contract": "contracts/NightFairHygiene.sol:NightFairHygiene",
            "label": "name",
            "offset": 0,
            "slot": "1",
            "type": "t_string_storage"
          },
          {
            "astId": 39296,
            "contract": "contracts/NightFairHygiene.sol:NightFairHygiene",
            "label": "location",
            "offset": 0,
            "slot": "2",
            "type": "t_string_storage"
          },
          {
            "astId": 39298,
            "contract": "contracts/NightFairHygiene.sol:NightFairHygiene",
            "label": "exists",
            "offset": 0,
            "slot": "3",
            "type": "t_bool"
          },
          {
            "astId": 39300,
            "contract": "contracts/NightFairHygiene.sol:NightFairHygiene",
            "label": "ratingCount",
            "offset": 0,
            "slot": "4",
            "type": "t_uint256"
          }
        ],
        "numberOfBytes": "160"
      },
      "t_uint256": {
        "encoding": "inplace",
        "label": "uint256",
        "numberOfBytes": "32"
      },
      "t_userDefinedValueType(euint16)39941": {
        "encoding": "inplace",
        "label": "euint16",
        "numberOfBytes": "32"
      }
    }
  }
}